S014000033645F696E746572666163652E7372656369
S11300000C9434000C9446000C9446000C94460066
S11300100C9446000C9446000C9446000C94460044
S11300200C9446000C9446000C9446000C94460034
S11300300C9446000C9446000C9446000C94460024
S11300400C94E7020C9446000C9446000C94460071
S11300500C9446000C9446000C9446000C94460004
S11300600C9446000C94460011241FBECFEFD8E038
S1130070DEBFCDBF21E0A0E0B1E001C01D92AD30F4
S1130080B207E1F70E9466030C94C0030C940000CD
S1130090429A00C042980895CF93C82F662311F066
S11300A0419A01C041984398229A239A249A259A06
S11300B02D982C982B982A98CC230CF42D9AC6FDB5
S11300C02C9AC5FD2B9AC4FD2A9A0E9448002D98AB
S11300D02C982B982A98C3FD2D9AC2FD2C9AC1FD09
S11300E02B9AC0FD2A9A0E9448002A9A2B9A2C9A8D
S11300F02D9ACF910895882311F0419A01C0419817
S1130100439A2298239824982598429A00C01A9BCF
S113011002C080E101C080E01B9980621C99806468
S11301201D998068429800C0429A00C01A99816063
S11301301B9982601C9984601D9988604298089577
S1130140CF93DF93C0E6DAEE01C0219780E00E94EE
S11301507B00882314F42097C1F781E090E0019795
S1130160F1F7CD2B21F080E00E947B0001C08FEFDE
S1130170DF91CF910895CF93C82F0E94A00060E033
S11301808C2F0E944C00CF910895611104C08058B7
S11301900E94BB00089580540E94BB00089581E032
S11301A00E94BB000895CF93C82F0E94A000CA30BC
S11301B049F4803410F080E001C080E480580E944B
S11301C0BB0013C0803129F460E080EC0E944C0035
S11301D006C0803521F460E080E80E944C000E9453
S11301E0A00061E08C2F0E944C00CF910895CF9322
S11301F0DF93EC012196FC018081882329F00E9481
S1130200D30089918111FBCFDF91CF9108951F9382
S1130210CF93DF93182F399A3B9A3A9A229A239ACA
S1130220249A259A80E999E30197F1F72B9A2A9A5F
S11302300E94480085EF91E10197F1F70E94480080
S1130240CAE3D0E0CE010197F1F70E944800CE0145
S11302500197F1F72A980E9448002197F1F788E264
S11302600E94BB000E94A0008F3F61F088E00E94C2
S1130270BB000E94CF0086E00E94BB00812F0E9439
S1130280BB0080E0DF91CF911F9108958CE00E9424
S11302900701089587B117B887B117B887B117B8A0
S11302A014BC83E085BD81E080936E0008951092B4
S11302B0050110920601109207011092080116BC64
S11302C008958F929F92AF92BF92CF92DF92EF9256
S11302D0FF92CF93DF93CDB7DEB764970FB6F89450
S11302E0DEBF0FBECDBF8091090190910A01A0919C
S11302F00B01B0910C0180349C49A105B10528F58E
S1130300812C912C5401C12CD12C7601389A18B827
S11303103898309907C08FEFC81AD80AE80AF80A43
S1130320309BF9CF9FEF891A990AA90AB90A8091DB
S1130330090190910A01A0910B01B0910C01803444
S11303409C49A105B10510F306C0812C912C5401E0
S1130350C12CD12C76010E94570160E080E00E94FC
S1130360C500C701B601052E5AE0660F771F881F26
S1130370991F5A95D1F7502DA50194010E94740339
S1130380DA01C9014AE0BE016F5F7F4F0E94960304
S1130390CE0101960E94F7008FE19EE40197F1F7E8
S11303A000C0000064960FB6F894DEBF0FBECDBF48
S11303B0DF91CF91FF90EF90DF90CF90BF90AF90FF
S11303C09F908F9008958F929F92AF92BF92CF92F9
S11303D0DF92EF92FF92CF93DF93CDB7DEB76497AE
S11303E00FB6F894DEBF0FBECDBF80910901909186
S11303F00A01A0910B01B0910C0180349C49A10524
S1130400B10528F5812C912C5401C12CD12C7601F5
S11304103C9A18B83C98349907C08FEFC81AD80A88
S1130420E80AF80A349BF9CF9FEF891A990AA90AB6
S1130430B90A8091090190910A01A0910B01B09130
S11304400C0180349C49A105B10510F306C0812C30
S1130450912C5401C12CD12C76010E94570160E0EB
S113046086E00E94C500C701B601052E5AE0660F5A
S1130470771F881F991F5A95D1F7502DA501940114
S11304800E947403DA01C9014AE0BE016F5F7F4F25
S11304900E949603CE0101960E94F7008FE19EE42C
S11304A00197F1F700C0000064960FB6F894DEBF20
S11304B00FBECDBFDF91CF91FF90EF90DF90CF9033
S11304C0BF90AF909F908F9008958F929F92AF921C
S11304D0BF92CF92DF92EF92FF92CF93DF93CDB78B
S11304E0DEB764970FB6F894DEBF0FBECDBF809120
S11304F0090190910A01A0910B01B0910C01803483
S11305009C49A105B10528F5812C912C5401C12CDD
S1130510D12C76013D9A18B83D98359907C08FEFD4
S1130520C81AD80AE80AF80A359BF9CF9FEF891A46
S1130530990AA90AB90A8091090190910A01A09126
S11305400B01B0910C0180349C49A105B10510F355
S113055006C0812C912C5401C12CD12C76010E940F
S1130560570161E080E00E94C500C701B601052E75
S11305705AE0660F771F881F991F5A95D1F7502D9F
S1130580A50194010E947403DA01C9014AE0BE0185
S11305906F5F7F4F0E949603CE0101960E94F70081
S11305A08FE19EE40197F1F700C0000064960FB656
S11305B0F894DEBF0FBECDBFDF91CF91FF90EF90D7
S11305C0DF90CF90BF90AF909F908F9008951F922F
S11305D00F920FB60F9211242F933F934F935F9373
S11305E06F937F938F939F93AF93BF9380910101F8
S11305F090910201A0910301B0910401AC01BD01ED
S11306004F5F5F4F6F4F7F4F409301015093020143
S113061060930301709304012091000133E0320FD1
S11306203D3718F4309300010EC02A57209300017F
S11306300296A11DB11D8093010190930201A09324
S11306400301B09304018091050190910601A091EA
S11306500701B09108010196A11DB11D8093050108
S113066090930601A0930701B093080180910501BE
S113067090910601A0910701B091080126B5BA2F07
S1130680A92F982F8827820F911DA11DB11D880FB6
S1130690991FAA1FBB1F880F991FAA1FBB1F8093F6
S11306A0090190930A01A0930B01B0930C01BF912F
S11306B0AF919F918F917F916F915F914F913F91F6
S11306C02F910F900FBE0F901F9018950E944A0112
S11306D078940E9446010E9457010E9461010E9481
S11306E0E3010E946502F9CFA1E21A2EAA1BBB1BEB
S11306F0FD010DC0AA1FBB1FEE1FFF1FA217B307EA
S1130700E407F50720F0A21BB30BE40BF50B661FFF
S1130710771F881F991F1A9469F7609570958095C3
S113072090959B01AC01BD01CF010895BB27FB014E
S11307305527AA27880F991FAA1FA41710F0A41BD6
S113074083955051B9F7A05DAA3308F0A95DA19330
S1130750009779F7B111B1931192CB010C94B003C6
S1130760DC01FC01672F71917723E1F7329704C014
S11307707C916D9370836291AE17BF07C8F308959F
S1070780F894FFCF17
S9030000FC
