S014000033645F696E746572666163652E7372656369
S11300000C9434000C9446000C9446000C94460066
S11300100C9446000C9446000C9446000C94460044
S11300200C9446000C9446000C9446000C94460034
S11300300C9446000C9446000C9446000C94460024
S11300400C9492020C9446000C9446000C944600C6
S11300500C9446000C9446000C9446000C94460004
S11300600C9446000C94460011241FBECFEFD8E038
S1130070DEBFCDBF21E0A0E0B1E001C01D92AD30F4
S1130080B207E1F70E9410030C946A030C94000079
S1130090429A00C042980895CF93C82F662311F066
S11300A0419A01C041984398229A239A249A259A06
S11300B02D982C982B982A98C7FD2D9AC6FD2C9A1A
S11300C0C5FD2B9AC4FD2A9A0E9448002D982C98AD
S11300D02B982A98C3FD2D9AC2FD2C9AC1FD2B9A08
S11300E0C0FD2A9A0E9448002A9A2B9A2C9A2D9A8B
S11300F0CF9108954198439A22982398249825985B
S1130100429A00C01A9B02C080E101C080E01B99A2
S113011080621C9980641D998068429800C0429A4C
S113012000C01A9981601B9982601C9984601D9992
S1130130886042980895CF93DF93C0E6DAEE0E9478
S11301407A0087FF04C0209711F02197F8CF81E04F
S113015090E00197F1F7CD2B21F0DF91CF910C9432
S11301607A008FEFDF91CF910895CF93C82F0E942B
S11301709B0060E08C2FCF910C944C00611102C065
S1130180805801C080540C94B50081E00C94B500F3
S1130190CF93C82F0E949B00CA3049F4803410F0DA
S11301A080E001C080E48058CF910C94B500803188
S11301B019F460E080EC04C0803521F460E080E84C
S11301C00E944C000E949B0061E08C2FCF910C9404
S11301D04C00CF93DF93EC018991882319F00E949E
S11301E0C800FACFDF91CF9108951F93CF93DF9387
S11301F0182F399A3B9A3A9A229A239A249A259A42
S113020080E999E30197F1F72B9A2A9A0E94480012
S113021085EF91E10197F1F70E944800CAE3D0E02D
S1130220CE010197F1F70E944800CE010197F1F742
S11302302A980E9448002197F1F788E20E94B500AD
S11302400E949B008F3F61F088E00E94B5000E94ED
S1130250C50086E00E94B500812F0E94B50080E0B1
S1130260DF91CF911F9108958CE00C94F50087B134
S113027017B887B117B887B117B814BC83E085BD28
S113028081E080936E00089510920501109206019A
S1130290109207011092080116BC08958F929F9244
S11302A0AF92BF92CF92DF92EF92FF92CF93DF9300
S11302B0CDB7DEB764970FB6F894DEBF0FBECDBFDF
S11302C0812C912C5401C12CD12C760180910901EF
S11302D090910A01A0910B01B0910C0180349C49CA
S11302E0A105B10588F4389A18B83898309906C031
S11302F02FEFC21AD20AE20AF20AF8CF8FEF881A55
S1130300980AA80AB80AE2CF0E94440160E080E09B
S11303100E94BE00C701B6012AE0660F771F881F3E
S1130320991F2A95D1F7A50194010E941E03DA01B1
S1130330C9014AE0BE016F5F7F4F0E944003CE01B6
S113034001960E94E9008FE19EE40197F1F700C055
S1130350000064960FB6F894DEBF0FBECDBFDF91E8
S1130360CF91FF90EF90DF90CF90BF90AF909F9090
S11303708F9008958F929F92AF92BF92CF92DF9207
S1130380EF92FF92CF93DF93CDB7DEB764970FB6AA
S1130390F894DEBF0FBECDBF812C912C5401C12C2B
S11303A0D12C76018091090190910A01A0910B0151
S11303B0B0910C0180349C49A105B10588F43C9AA4
S11303C018B83C98349906C02FEFC21AD20AE20A30
S11303D0F20AF8CF8FEF881A980AA80AB80AE2CF6F
S11303E00E94440160E086E00E94BE00C701B6019D
S11303F02AE0660F771F881F991F2A95D1F7A50158
S113040094010E941E03DA01C9014AE0BE016F5F34
S11304107F4F0E944003CE0101960E94E9008FE1C4
S11304209EE40197F1F700C0000064960FB6F894BB
S1130430DEBF0FBECDBFDF91CF91FF90EF90DF9075
S1130440CF90BF90AF909F908F9008958F929F927E
S1130450AF92BF92CF92DF92EF92FF92CF93DF934E
S1130460CDB7DEB764970FB6F894DEBF0FBECDBF2D
S1130470812C912C5401C12CD12C7601809109013D
S113048090910A01A0910B01B0910C0180349C4918
S1130490A105B10588F43D9A18B83D98359906C070
S11304A02FEFC21AD20AE20AF20AF8CF8FEF881AA3
S11304B0980AA80AB80AE2CF0E94440161E080E0E9
S11304C00E94BE00C701B6012AE0660F771F881F8D
S11304D0991F2A95D1F7A50194010E941E03DA0100
S11304E0C9014AE0BE016F5F7F4F0E944003CE0105
S11304F001960E94E9008FE19EE40197F1F700C0A4
S1130500000064960FB6F894DEBF0FBECDBFDF9136
S1130510CF91FF90EF90DF90CF90BF90AF909F90DE
S11305208F9008951F920F920FB60F9211242F935C
S11305303F934F935F936F937F938F939F93AF9367
S1130540BF938091010190910201A0910301B091A8
S11305500401AC01BD014F5F5F4F6F4F7F4F40936C
S113056001015093020160930301709304012091EF
S1130570000133E0320F3D3718F4309300010EC010
S11305802A57209300010296A11DB11D80930101F9
S113059090930201A0930301B0930401809105019B
S11305A090910601A0910701B09108010196A11D47
S11305B0B11D8093050190930601A0930701B093A8
S11305C008018091050190910601A0910701B09165
S11305D0080126B5BA2FA92F982F8827820F911DBD
S11305E0A11DB11D42E0880F991FAA1FBB1F4A9588
S11305F0D1F78093090190930A01A0930B01B09362
S11306000C01BF91AF919F918F917F916F915F91F9
S11306104F913F912F910F900FBE0F901F901895FF
S11306200E94370178940E9434010E9444010E9480
S11306304E010E94BA010E942602F9CFA1E21A2EAD
S1130640AA1BBB1BFD010DC0AA1FBB1FEE1FFF1F72
S1130650A217B307E407F50720F0A21BB30BE40BC2
S1130660F50B661F771F881F991F1A9469F7609509
S11306707095809590959B01AC01BD01CF010895C3
S1130680BB27FB015527AA27880F991FAA1FA41768
S113069010F0A41B83955051B9F7A05DAA3308F05C
S11306A0A95DA193009779F7B111B1931192CB0190
S11306B00C945A03DC01FC01672F71917723E1F755
S11306C0329704C07C916D9370836291AE17BF071B
S10B06D0C8F30895F894FFCF6C
S9030000FC
