S014000033645F696E746572666163652E7372656369
S11300000C9434000C9446000C9446000C94460066
S11300100C9446000C9446000C9446000C94460044
S11300200C9446000C9446000C9446000C94460034
S11300300C9446000C9446000C9446000C94460024
S11300400C94A2000C9446000C9446000C944600B8
S11300500C9446000C9446000C9446000C94460004
S11300600C9446000C94460011241FBECFEFD8E038
S1130070DEBFCDBF21E0A0E0B1E001C01D92AD30F4
S1130080B207E1F70E940F020C9482020C94000064
S113009010920501109206011092070110920801B6
S11300A016BC089587B117B887B117B887B117B8C8
S11300B014BC83E085BD81E080936E0078940C9439
S11300C048008F929F92AF92BF92CF92DF92EF92AD
S11300D0FF92812C912C5401C12CD12C760180915A
S11300E0090190910A01A0910B01B0910C01803497
S11300F09C49A105B10588F4389A18B83898309904
S113010006C02FEFC21AD20AE20AF20AF8CF8FEF22
S1130110881A980AA80AB80AE2CF0E9448009E2DBD
S11301208D2D7C2D6627A50194010E943602CA01FB
S1130130B901FF90EF90DF90CF90BF90AF909F9068
S11301408F9008951F920F920FB60F9211242F9340
S11301503F934F935F936F937F938F939F93AF934B
S1130160BF938091010190910201A0910301B0918C
S11301700401AC01BD014F5F5F4F6F4F7F4F409350
S113018001015093020160930301709304012091D3
S1130190000133E0320F3D3718F4309300010EC0F4
S11301A02A57209300010296A11DB11D80930101DD
S11301B090930201A0930301B0930401809105017F
S11301C090910601A0910701B09108010196A11D2B
S11301D0B11D8093050190930601A0930701B0938C
S11301E008018091050190910601A0910701B09149
S11301F0080126B5BA2FA92F982F8827820F911DA1
S1130200A11DB11D42E0880F991FAA1FBB1F4A956B
S1130210D1F78093090190930A01A0930B01B09345
S11302200C01BF91AF919F918F917F916F915F91DD
S11302304F913F912F910F900FBE0F901F901895E3
S1130240429A00C042980895CF93C82F662311F0B4
S1130250419A01C041984398229A239A249A259A54
S11302602D982C982B982A98C7FD2D9AC6FD2C9A68
S1130270C5FD2B9AC4FD2A9A0E9420012D982C9822
S11302802B982A98C3FD2D9AC2FD2C9AC1FD2B9A56
S1130290C0FD2A9A0E9420012A9A2B9A2C9A2D9A00
S11302A0CF9108954198439A2298239824982598A9
S11302B0429A00C01A9B02C080E101C080E01B99F1
S11302C080621C9980641D998068429800C0429A9B
S11302D000C01A9981601B9982601C9984601D99E1
S11302E0886042980895CF93DF93C0E6DAEE0E94C7
S11302F0520187FF04C0209711F02197F8CF81E0C5
S113030090E00197F1F7CD2B21F0DF91CF910C9480
S113031052018FEFDF91CF910895CF93C82F0E94A0
S1130320730160E08C2FCF910C942401611102C001
S1130330805801C080540C948D0181E00C948D018F
S1130340CF93C82F0E947301CA3049F4803410F04F
S113035080E001C080E48058CF910C948D018031FD
S113036019F460E080EC04C0803521F460E080E89A
S11303700E9424010E94730161E08C2FCF910C94A0
S11303802401CF93DF93EC018991882319F00E9413
S1130390A001FACFDF91CF9108951F93CF93DF93FC
S11303A0182F399A3B9A3A9A229A239A249A259A90
S11303B080E999E30197F1F72B9A2A9A0E94200188
S11303C085EF91E10197F1F70E942001CAE3D0E0A3
S11303D0CE010197F1F70E942001CE010197F1F7B8
S11303E02A980E9420012197F1F788E20E948D014A
S11303F00E9473018F3F61F088E00E948D010E948A
S11304009D0186E00E948D01812F0E948D0180E074
S1130410DF91CF911F9108958CE00C94CD01CF937F
S1130420DF93CDB7DEB764970FB6F894DEBF0FBE87
S1130430CDBF0E9452000E940C0260E080E00E9446
S113044096010E946100DC01CB014AE0BE016F5FAE
S11304507F4F0E945802CE0101960E94C1018FE194
S11304609EE40197F1F700C00000E7CFA1E21A2E45
S1130470AA1BBB1BFD010DC0AA1FBB1FEE1FFF1F44
S1130480A217B307E407F50720F0A21BB30BE40B94
S1130490F50B661F771F881F991F1A9469F76095DB
S11304A07095809590959B01AC01BD01CF01089595
S11304B0BB27FB015527AA27880F991FAA1FA4173A
S11304C010F0A41B83955051B9F7A05DAA3308F02E
S11304D0A95DA193009779F7B111B1931192CB0162
S11304E00C947202DC01FC01672F71917723E1F710
S11304F0329704C07C916D9370836291AE17BF07ED
S10B0500C8F30895F894FFCF3D
S9030000FC
